:020000020000FC
:0200000014C02A
:10002A000FE50DBF02E00EBF0FEF07BB04E108BBEF
:10003A0045D0C39A3AD0C39838D0C39A36D0C39819
:10004A0034D0C39AC29A31D0C298C3982ED0C29AD9
:10005A00C39A2BD0C298C39828D0C29AC39A25D0E3
:10006A00C298C398C19A2AD0C09AC198C498C69A0D
:10007A0025D0C79A1AD0C79818D0C79A16D0C79849
:10008A0014D0C79AC69A11D0C698C7980ED0C69AE5
:10009A00C79A0BD0C698C79808D0C69AC79A05D0EF
:1000AA00C698C798C59A0AD0C5986FE200C04A9503
:1000BA00F1F75A95E1F76A95D1F708956EE500C010
:1000CA004A95F1F75A95E1F76A95D1F708956CEBDD
:1000DA0000C04A95F1F75A95E1F76A95D1F7089564
:00000001FF
