:020000020000FC
:0200000014C02A
:10002A000FE50DBF02E00EBF0DE409B9549A0FEFB8
:10003A0007BB0FEF0BBB00E008BB27D0043409F461
:10004A0003C00934D1F712C000E008BB22D001E096
:10005A0008BB1FD002E008BB1CD004E008BB19D0C3
:10006A0008E008BB16D000E008BBE7CF08E008BBF1
:10007A0010D004E008BB0DD002E008BB0AD001E0B2
:10008A0008BB07D000E008BBD8CF5F9BFECF0CB1FE
:10009A00089569B34A95F1F75A95E1F76A95D1F748
:0200AA000895B7
:00000001FF
