S00E00007072756562612E7372656397
S113000014C023C022C021C020C01FC01EC01DC0F8
S11300101DC01BC01AC019C018C017C016C015C017
S113002014C013C012C011C010C011241FBECFE5EC
S1130030D2E0DEBFCDBF10E0A0E6B0E001C01D926B
S1130040A336B107E1F77ED092C0DACF1F920F92A8
S11300500FB60F9211242F933F938F939F93EF9397
S1130060FF93DF93CF9300D0CDB7DEB780916000CC
S1130070282F30E03A83298389819A81009731F0CF
S113008029813A8121303105B1F026C08091610087
S11300909091620001969093620080936100809138
S11300A061009091620033E08F3F9307A9F481E0EF
S11300B08093600011C0809161009091620001976B
S11300C0909362008093610080916100909162003E
S11300D0009711F410926000EAE4F0E0809161006E
S11300E090916200918380830F900F90CF91DF9164
S11300F0FF91EF919F918F913F912F910F900FBEA0
S11301000F901F901895DF93CF93CDB7DEB7EFE430
S1130110F0E083E88083AEE4B0E0EEE4F0E08081D8
S113012081608C93EAE4F0E011821082E1E3F0E074
S113013080E28083E9E5F0E084E080837894CF91E5
S1130140DF910895DF93CF93CDB7DEB7DCDFA5E56C
S1130150B0E0E5E5F0E0808180648C938895A5E5C6
S1130160B0E0E5E5F0E080818F7B8C93F0CFF894EC
S1050170FFCFBB
S9030000FC
