S00F0000707261637430392E7372656392
S113000014C01BC01AC019C018C017C016C015C030
S113001014C013C012C011C010C00FC00EC00DC058
S11300200CC00BC00AC009C008C011241FBECFE514
S1130030D2E0DEBFCDBF02D030C0E2CF0F931F931A
S1130040CF93DF938FE489B986E880BD8FEF87BBB8
S113005082E08EBDE8E5F0E02AE230E070E1ABE258
S1130060B0E00CE210E068E048E350E0808182FFF9
S1130070FDCF808184608083E90178838C9188231B
S1130080ECF7E8019881E9016883E80198838C9191
S111009085FFFDCFEA019883E9CFF894FFCFF6
S9030000FC
