S00F0000707261637431302E737265639A
S113000014C026C025C024C023C022C021C020C0E3
S11300101FC01EC01DC01CC01BC01AC019C018C000
S113002017C016C015C014C013C011241FBECFE5DD
S1130030D2E0DEBFCDBF10E0A0E6B0E0E6EBF0E03A
S113004002C005900D92A239B107D9F702D031C090
S1130050D7CF0F931F93CF93DF938FE489B986E8AB
S113006080BD88E08AB98FEF87BB82E08EBD20E037
S113007030E0A8E5B0E000E610E04CE250E0CBE26E
S1130080D0E060E070E08C9182FFFDCF8C918460C1
S11300908C93F801E20FF31F9081FA019083888119
S11300A085FFFDCF943211F49B01EDCF2F5F3F4FBD
S10900B0EACFF894FFCF33
S11300B649504E204553434F4D204D4943524F43DB
S11300C64F4E54524F4C41444F524553204845439A
S11300D6544F52204D2050415A205220323031364E
S10500E62400F0
S9030000FC
