S00F0000707261637430382E7372656393
S113000014C01BC01AC019C018C017C016C015C030
S113001014C013C012C011C010C00FC00EC00DC058
S11300200CC00BC00AC009C008C011241FBECFE514
S1130030D2E0DEBFCDBF02D023C0E2CFCF93DF93A7
S11300408FE489B986E880BD80E18AB98FEF87BBE8
S113005082E08EBDE8E5F0E0ABE2B0E02CE230E017
S113006048E350E0808182FFFDCF808184608083FB
S11300708C918823ECF7E9018881EA018883F2CF27
S1070080F894FFCF1E
S9030000FC
