:1000000014C01BC01AC019C018C017C016C015C034
:1000100014C013C012C011C010C00FC00EC00DC05C
:100020000CC00BC00AC009C008C011241FBECFE518
:10003000D2E0DEBFCDBF02D037C0E2CF0F931F9317
:10004000CF93DF938FEF87BB18BA80E881BB82E63E
:1000500085BD82E08EBD20E030E041E050E0E8E583
:10006000F0E0C8E3D0E0A3E4B0E061E070E000E0DD
:1000700010E0808182FFFDCF8081846080832883AF
:100080004130510541F42F3F310511F4A8010AC058
:100090002F5F3F4F07C02115310511F4AB0102C09E
:0C00A000215030402C93E5CFF894FFCFA6
:00000001FF
