S01100007072616374696361312E737265639B
S113000014C01BC01AC019C018C017C016C015C030
S113001014C013C012C011C010C00FC00EC00DC058
S11300200CC00BC00AC009C008C011241FBECFE514
S1130030D2E0DEBFCDBF02D052C0E2CFDF93CF9378
S113004000D000D000D0CDB7DEB71E821D821C8246
S11300501B821A821982E7E3F0E08FEF80831E820D
S11300601D822CC0E8E3F0E08D8180831C821B821A
S113007013C01A82198205C089819A8101969A83D4
S1130080898389819A818F3F9105B1F3ACF38B8188
S11300909C8101969C838B838B819C818F3F9105EE
S11300A041F33CF38D819E818F3F910511F41E82B3
S11300B01D828D819E8101969E838D838D819E817B
S11300C08F3F910579F274F280E090E026960FB6A6
S11300D0F894DEBF0FBECDBFCF91DF910895F894A1
S10500E0FFCF4C
S9030000FC
