:1000000014C01BC01AC019C018C017C016C015C034
:1000100014C013C012C011C010C00FC00EC00DC05C
:100020000CC00BC00AC009C008C011241FBECFE518
:10003000D2E0DEBFCDBF02D025C0E2CFCF93DF93A9
:100040008FEF87BB18BA82E08EBD80E287B986EA5F
:1000500086B9E8E5F0E0A6E2B0E040E424E230E072
:1000600068E370E0808182FFFDCF808184608083BF
:100070004C938C9184FFFDCFE90188819981EB013C
:080080008883F0CFF894FFCF54
:00000001FF
