:1000000014C01BC01AC019C018C017C016C015C034
:1000100014C013C012C011C010C00FC00EC00DC05C
:100020000CC00BC00AC009C008C011241FBECFE518
:10003000D2E0DEBFCDBF03D021C0E2CF0895FEDF06
:100040008FEF87BB80E090E031E020E002C0832F9B
:10005000922F88BB4FE956E861E041505040604024
:10006000E1F700C000008F3F910589F301968F3FB3
:10007000910579F374F380E090E00895F894FFCF50
:00000001FF
