S00E00007072616330312E737265630F
S113000014C01BC01AC019C018C017C016C015C030
S113001014C013C012C011C010C00FC00EC00DC058
S11300200CC00BC00AC009C008C011241FBECFE514
S1130030D2E0DEBFCDBF02D026C0E2CF8FEF87BBB8
S113004060E070E0F0E0E1E05F2F4E2FB1E0A0E06F
S113005002C06B2F7A2F68BB2F2F3E2F05C001974C
S1130060F1F72150310919F0852F942FF8CF6F3F04
S1130070710579F36F5F7F4F6F3F710561F35CF337
S10D008080E090E00895F894FFCFAB
S9030000FC
