S00E00007072616330362E737265630A
S113000024C02BC02AC029C028C027C026C025C0B0
S113001024C023C022C021C020C01FC01EC01DC0D8
S11300201CC01BC01AC019C018C050C01FC021C0BA
S113003023C025C027C029C02BC02DC02FC031C06C
S113004033C035C037C039C03BC011241FBECFE513
S1130050D2E0DEBFCDBF3DD082C0D2CF0895803183
S1130060910588F5FC01EB5EFF4F099480E690E072
S113007008958BED90E0089582EF90E0089587E66F
S113008090E0089586EB90E008958FEB90E008955A
S113009080EE90E008958FEF90E0089586EE90E072
S11300A008958FEE90E008958EE390E008958DE931
S11300B090E008958AE790E008958FE990E008952C
S11300C082EE90E0089580E090E008958DEF90E056
S11300D00895AF92BF92CF92DF92EF92FF920F9367
S11300E01F93CF93DF93BADF8FEF87BB00E010E05D
S11300F0F12CBB24B394AF2CCB2CDAE0C0E0D12C90
S1130100E12C1BC088BB21503109E1F74150510952
S113011019F02D2F3C2FF6CF6150710919F04A2D9B
S11301205C2DF7CF0F30110531F00F5F1F4F0031F9
S113013011051CF007C00D2D1E2DC80190DF6F2D79
S11301407B2DEDCF80E090E0DF91CF911F910F9157
S1130150FF90EF90DF90CF90BF90AF900895F89408
S1050160FFCFCB
S9030000FC
