:1000000024C02BC02AC029C028C027C026C025C0B4
:1000100024C023C022C021C020C01FC01EC01DC0DC
:100020001CC01BC01AC019C018C050C01FC021C0BE
:1000300023C025C027C029C02BC02DC02FC031C070
:1000400033C035C037C039C03BC011241FBECFE517
:10005000D2E0DEBFCDBF3DD064C0D2CF08958031A5
:10006000910588F5FC01EB5EFF4F099480E690E076
:1000700008958BED90E0089582EF90E0089587E673
:1000800090E0089586EB90E008958FEB90E008955E
:1000900080EE90E008958FEF90E0089586EE90E076
:1000A00008958FEE90E008958EE390E008958DE935
:1000B00090E008958AE790E008958FE990E0089530
:1000C00082EE90E0089580E090E008958DEF90E05A
:1000D00008950F931F93CF93DF93C0DF8FEF87BBFC
:1000E000C0E0D0E001E010E002C0C02FD12FCE016F
:1000F000B6DF88BB9FE724E88EE191502040804026
:10010000E1F700C00000CF30D10579F32196C0316E
:10011000D1056CF380E090E0DF91CF911F910F91BA
:060120000895F894FFCFE2
:00000001FF
