S00F0000707261633070312E737265639E
S113000014C01BC01AC019C018C017C016C015C030
S113001014C013C012C011C010C00FC00EC00DC058
S11300200CC00BC00AC009C008C011241FBECFE514
S1130030D2E0DEBFCDBF50D06DC0E2CFAF92CF9241
S1130040EF920F93CF93DF93C0E0D1E070E051E0E3
S11300503AEB90E009C03197F1F7119719F0E32FCB
S1130060F92FF9CF219719F0A72FB52FF8CF98B30F
S1130070892B88BB88B3660F862B88BB88B3440F53
S1130080440F842B88BB88B3220F220F220F822BAC
S113009088BB28B330E1039FC0011124822B88BBA5
S11300A028B330E2E39EC0011124822B88BB28B31D
S11300B030E4C39EC0011124822B88BB28B330E8EE
S11300C0A39EC0011124822B88BBDF91CF910F9195
S11300D0EF90CF90AF900895AF92CF92EF920F939D
S11300E08FEF87BB18BAA12CCC24C394E12C00E079
S11300F020E040E060E081E0A1DFC12C20E040E0AE
S113010060E080E09BDF80E090E00F91EF90CF9083
S10B0110AF900895F894FFCFAD
S9030000FC
